:107E00001F92CDB7DEB711248FE598E09EBF8DBFDE
:107E100084B714BE982F9D7009F0CAD085E08EBD3E
:107E200082E08BB988E18AB986E880BD83E389B9AD
:107E30008EE0ABD0A29A86E040E35CEF24E05DBD2B
:107E40004CBD28BF08B602FEFDCF95B3922795BB67
:107E5000A8958150A1F7812C912C13E001E025E039
:107E6000F22E31E1E32E8AD0813471F487D08983F8
:107E700090D08981823809F473C0813811F486E08A
:107E800001C083E077D073C0823411F484E103C071
:107E9000853419F485E085D06AC0853549F46ED003
:107EA000D82E6CD08D2C912C982A880C991C5EC0F1
:107EB000863521F484E075D080E0E4CF843609F083
:107EC00038C05CD05BD0D82E59D0C82E80E6A82E02
:107ED000B12C80E6D80E52D0F50181935F01DE12FD
:107EE000FACF57D0F5E4CF1201C0FFCFF40117BF8E
:107EF000E89507B600FCFDCFA401A0E6B0E02C9108
:107F00001296CD010197FC01808130E0382BFA01F7
:107F1000090107BFE89511244E5F5F4FDA12EFCFDA
:107F2000F401F7BEE89507B600FCFDCFE7BEE89583
:107F30001EC0843771F422D021D0D82E1FD029D072
:107F40005401F50185915F0115D0DA94D110F9CF74
:107F50000EC0853739F41DD08EE10CD085E90AD0EA
:107F600082E090CF813511F488E00FD012D080E10B
:107F700001D079CF5D9BFECF8CB908955F9BFECF7A
:107F80005C9901C0A8958CB1089598E191BD81BD1F
:107F90000895F4DF803219F088E0F7DFFFCF84E145
:107FA000E9CFCF93C82FEADFC150E9F7CF91F1CFE6
:0C7FB000282E80E0EADFE0E0FF270994C3
:027FFE00020679
:0400000300007E007B
:00000001FF
